:100000000C94B81E0C94E91E0C94E91E0C94E91E85
:100010000C94E91E0C94E91E0C94E91E0C94E91E44
:100020000C94E91E0C94E91E0C94E91E0C94E91E34
:100030000C94E91E0C94E91E0C94E91E0C94E91E24
:100040000C94E91E0C9411440C94E91E0C94E91EC6
:100050000C94E91E0C94E91E0C94294F0C9498788A
:100060000C94E91E0C94EB420C94E91E0C94E91ECE
:100070000C94E91E0C94E91E0C94E91E0C94E91EE4
:100080000C94E91E0C94E91E0C94E91E0C94E91ED4
:100090000C94E91E0C94E91E0C94E91E0C94E91EC4
:1000A0000C94E91E0C94E91E0C94E91E0C94E91EB4
:1000B0000C94E91E0C94E91E0C94E91E0C94E91EA4
:1000C0000C94E91E0C94E91E0C94E91E0C94E91E94
:1000D0000C94E91E0C94E91E0C94E91E0C94E91E84
:1000E0000C94E91EB477B977BE77C877D2774B788E
:1000F000DC77E477EC77F67700780A78197823785C
:100100004B782D7837784178688B6B8B5A8B5E8B68
:10011000648BA28B6F8B738B798B7D8B818B878BA1
:100120008B8B8F8BA28B958B998B9D8BF28CD88C24
:10013000DB8CDE8CE18CED8CE48CFE8CE78CEA8C25
:10014000A4D41CD355D3E0D455D355D355D355D3CC
:1001500055D355D355D355D355D355D355D355D35F
:1001600055D355D355D355D355D355D355D355D34F
:1001700055D355D355D355D355D355D3DAD455D3B9
:1001800055D355D355D355D355D355D355D3B3D4D0
:1001900055D355D355D355D355D355D355D355D31F
:1001A00055D355D3F7D452D3084AD73B3BCE016E33
:1001B00084BCBFFDC12F3D6C74319ABD56833DDABE
:1001C0003D00C77F11BED9E4BB4C3E916BAAAABECD
:1001D000000000803F05A84CCDB2D44EB93836A9F6
:1001E000020C50B9918688083CA6AAAA2ABE000033
:1001F00000803F004E414E494E495459494E46CD2C
:10020000CCCC3D0AD7233C17B7D13877CC2B3295CD
:1002100095E6241FB14F0A000020410000C84200AB
:10022000401C4620BCBE4CCA1B0E5AAEC59D744332
:100230004F4D4D554E49434154494F4E004452593C
:1002400052554E004552524F525300494E464F00B0
:100250004543484F0020746F6F206C6F6E672065B8
:100260007874727573696F6E2070726576656E74DE
:1002700065640A0020636F6C64206578747275731E
:10028000696F6E2070726576656E7465640A0047EA
:10029000322F47332062616420706172616D657432
:1002A0006572730A00D0A1D0BED0BD2E2E2E00D014
:1002B0009FD180D0BED0B4D0BED0BBD0B6D0B8D144
:1002C00082D18C2E2E2E00D09DD0B5D18220D0B4DC
:1002D000D0B2D0B8D0B6D0B5D0BDD0B8D18F2E0066
:1002E000456E642066696C65206C6973740A00420F
:1002F0006567696E2066696C65206C6973740A00B5
:100300004D31323500286E6F2066696C65290053C7
:1003100044207072696E74696E672062797465201A
:10032000004E6F74205344207072696E74696E675A
:100330000A0043757272656E742066696C653A20B6
:100340000046696C652064656C657465643A0044B8
:10035000656C6574696F6E206661696C65642C20DC
:1003600046696C653A20002569730025696D202572
:100370006973002569682025696D2025697300254A
:100380006964202569682025696D20256973002529
:10039000697920256964202569682025696D2025F3
:1003A0006973005072696E742074696D653A20003B
:1003B00050024B0244023D022F026F666600444524
:1003C0004255473A00D0A3D091D098D0A2D09E2ECB
:1003D00020004D3131332053006F6B0033442050E7
:1003E00072696E74657220D092D18BD0BAD0BB2E58
:1003F0002E002C20002C2000544845524D414C5FCB
:1004000050524F54454354494F4E004155544F525A
:1004100045504F52545F53445F5354415455530019
:10042000454D455247454E43595F50415253455201
:1004300000434153455F4C494748545F4252494746
:1004400048544E45535300544F47474C455F4C4921
:100450004748545300534F4654574152455F504FFD
:10046000574552004255494C445F50455243454E12
:1004700054004C4556454C494E475F444154410059
:100480005A5F50524F4245004155544F4C455645D6
:100490004C005052494E545F4A4F420050524F4711
:1004A00052455353004155544F5245504F52545F9B
:1004B00054454D5000564F4C554D455452494300FC
:1004C000454550524F4D0053455249414C5F584F9E
:1004D0004E5F584F4646004649524D574152455F80
:1004E0004E414D453A4D61726C696E20312E312E70
:1004F0003920284769746875622920534F55524343
:10050000455F434F44455F55524C3A68747470736D
:100510003A2F2F6769746875622E636F6D2F4D6176
:10052000726C696E4669726D776172652F4D61728A
:100530006C696E2050524F544F434F4C5F5645529A
:1005400053494F4E3A312E30204D414348494E4594
:100550005F545950453A3344205072696E74657245
:100560002045585452554445525F434F554E543AD6
:100570003120555549443A63656465326132662DD0
:10058000343161322D343734382D396231322D63B4
:1005900035356336326633363766660A002F2F20CC
:1005A000004D31343520533C696E6465783E206FD0
:1005B0007574206F662072616E67652028302D315A
:1005C000290A00205400205200416363656C657263
:1005D0006174696F6E3A205000D09AD0BED180D13C
:1005E00080D0B5D0BAD186D0B8D0B820D0BFD18015
:1005F000D0B8D0BCD0B5D0BDD0B5D0BDD18B004522
:1006000072723A20546F6F206661722100546F6FCE
:10061000206661722066726F6D2072656665726514
:100620006E636520706F696E740A0020466C6F7788
:100630003A2000000136372603FFFFFF353C3D38E6
:100640000EFFFFFF312E303E12FFFFFFFF28FF0C91
:100650000809FFFF071A1C18FFFF2A08440A2C4349
:1006600020643A0020693A0020703A00496E7661B1
:100670006C69642065787472756465720A00432938
:100680000A0061626C656420286D696E2074656D76
:10069000702000436F6C64206578747275646573B4
:1006A0002061726520004E6F2063617365206C6964
:1006B0006768740A00454550524F4D204F4B0A0061
:1006C0004163746976652045787472756465723A21
:1006D0002000496E76616C69642065787472756477
:1006E00065720A00D0A3D091D098D0A2D09E2E20BF
:1006F00000D09ED0A1D0A2D090D09DD09ED092D03C
:100700009BD095D09DD09E2E20005072696E74654E
:10071000722073746F707065642064756520746FE7
:10072000206572726F72732E204669782074686536
:10073000206572726F7220616E6420757365204D42
:1007400039393920746F20726573746172742E2088
:100750002854656D706572617475726520697320C7
:1007600072657365742E2053657420697420616608
:100770007465722072657374617274696E67290A98
:10078000004E6F20436865636B73756D20776974E5
:1007900068206C696E65206E756D6265722C204CE8
:1007A000617374204C696E653A20004E6F20436877
:1007B00065636B73756D2077697468206C696E650D
:1007C000206E756D6265722C204C617374204C69CB
:1007D0006E653A2000636865636B73756D206D69A3
:1007E000736D617463682C204C617374204C696E66
:1007F000653A20004C696E65204E756D6265722009
:100800006973206E6F74204C617374204C696E653F
:10081000204E756D6265722B312C204C61737420F3
:100820004C696E653A20004D313130004D33310056
:1008300053442072656164206572726F720A0044CD
:100840006F6E65207072696E74696E672066696C80
:10085000650A0020496E76616C696420657874725F
:100860007564657220000000A0C000000000000058
:100870000000000057430000574300009643D09209
:10088000D0BED0B7D0B2D180D0B0D18220D0BDD030
:10089000B520D183D0B4D0B0D0BBD181D18F004DA1
:1008A0003630303A20D09DD0B8D0B7D0BAD0B0D101
:1008B0008F20D0A200486F74656E6420746F6F2023
:1008C000636F6C640A0050726F74656374656420B2
:1008D00050696E0A0020573A004520D09ED185D03D
:1008E000BBD0B0D0B6D0B4D0B5D0BDD0B8D0B52E76
:1008F0002E2E004520D09DD0B0D0B3D180D0B5D021
:10090000B22E2E2E0024F4D43050C38E20C2A2402A
:1009100017828B7011127A910D816CD90AA861E14E
:1009200008C7586607615143061E4B5D05C145A7C0
:10093000041A411104093D9803713931034036DB33
:100940000265339102D4305402802E1D02632CEED6
:1009500001752AC501B028A001102781018F2564E7
:10096000012B244B01E0223401AC211F018D200D0D
:1009700001801FFC00841EED00971DDF00B81CD213
:1009800000E61BC600201BBC00641AB200B219A806
:10099000000A19A0006A189900D117910040178B1E
:1009A00000B516840031167E00B31579003A157330
:1009B00000C7146F0058146A00EE136600881363B2
:1009C0000025135E00C7125B006C1257001512540D
:1009D00000C111510070114F0021114B00D6104978
:1009E000008D1047004610440002104200C00F4026
:1009F00000800F3E00420F3C00060F3B00CB0E383C
:100A000000930E37005C0E3500270E3400F30D32D4
:100A100000C10D3100900D3000600D2E00320D2D03
:100A200000050D2C00D90C2B00AE0C2900850C29DB
:100A3000005C0C2700350C27000E0C2600E80B2468
:100A400000C40B2400A00B23007D0B23005A0B21B4
:100A500000390B2100180B2000F80A1F00D90A1ECC
:100A600000BB0A1E009D0A1D00800A1D00630A1CAF
:100A700000470A1B002C0A1B00110A1A00F7091A6A
:100A800000DD091900C4091900AB09190092091702
:100A9000007B091800630917004C09160036091677
:100AA00000200916000A091500F5081500E00814D1
:100AB00000CC081400B8081400A40814009008130F
:100AC000007D0812006B0813005808120046081237
:100AD0000034081100230811001208110001081148
:100AE00000F0071000E0071000D0071000C007104A
:100AF00000B0070F00A107100091070E0083070F39
:100B00000074070F0065070E0057070E0049070E17
:100B1000003B070D002E070E0020070D0013070DE8
:100B20000006070D00F9060C00ED060D00E0060CAE
:100B300000D4060C00C8060C00BC060C00B0060C65
:100B400000A4060B0099060C008D060B0082060B14
:100B50000077060B006C060B0061060A0057060BB7
:100B6000004C060A0042060A0038060A002E060A51
:100B70000024060A001A060A001006090007060AE1
:100B800000FD050900F4050900EB050900E205096F
:100B900000D9050900D0050900C7050900BE0509EF
:100BA00000B5050800AD050800A50509009C05086D
:100BB00000940508008C050800840508007C0508E1
:100BC00000740508006C050700650508005D050751
:100BD00000560508004E05070047050700400508B8
:100BE0000038050700310507002A0507002305071F
:100BF000001C050600160507000F0507000805067E
:100C00000002050700FB040600F5040700EE0406D9
:100C100000E8040600E2040700DB040600D5040631
:100C200000CF040600C9040600C3040600BD040684
:100C300000B7040600B1040500AC040600A60406D3
:100C400000A00405009B040600950405009004061E
:100C5000008A04050085040500800406007A040566
:100C60000075040500700405006B040500660405AA
:100C700000610405005C04050057040500520405EA
:100C8000004D04050048040500430405003E04042B
:100C9000003A04050035040500300404002C040566
:100CA0000027040400230405001E0404001A0404A1
:100CB0000016040500110404000D040400090405D5
:100CC000000404040000040400FC030400F803040E
:100CD00000F4030400F0030400EC030400E8030440
:100CE00000E4030400E0030400DC030400D8030470
:100CF00000D4030400D0030400CC030400C80303A1
:100D000000C503030024F404D9201BC40C5C0E9816
:100D100004C4095F0265077101F405F900FB04B31F
:100D20000048048700C103690058035500030345C8
:100D300000BE023A008402310053022A0029022533
:100D40000004022000E4011C00C8011900AF0117D3
:100D5000009801140084011300710110006101105A
:100D60000051010E0043010D0036010B002B010B59
:100D70000020010B00150109000C01090003010806
:100D800000FB000800F3000800EB000700E4000689
:100D900000DE000600D8000600D2000600CC0005E8
:100DA00000C7000500C2000500BD000400B9000432
:100DB00000B5000400B1000400AD000400A9000467
:100DC00000A5000300A20003009F0004009B000395
:100DD00000980003009500020093000300900003B8
:100DE000008D0002008B00030088000200860002D4
:100DF0000084000300810002007F0002007D0002E9
:100E0000007B0002007900020077000100760002FA
:100E1000007400020072000100710002006F000205
:100E2000006D0001006C0002006A00010069000210
:100E30000067000100660001006500010064000217
:100E4000006200010061000100600001005F00021B
:100E5000005D0001005C0001005B0001005A000120
:100E60000059000100580001005700010056000120
:100E70000055000100540001005300000053000120
:100E8000005200010051000100500001004F00011C
:100E9000004E0000004E0001004D0001004C00011A
:100EA000004B0000004B0001004A00010049000116
:100EB0000048000000480001004700010046000013
:100EC000004600010045000000450001004400010B
:100ED0000043000000430001004200000042000106
:100EE000004100000041000100400001003F0000FF
:100EF000003F0001003E0000003E0001003D0000F8
:100F0000003D0001003C0000003C0000003C0001EE
:100F1000003B0000003B0001003A0000003A0001E5
:100F200000390000003900010038000000380000DE
:100F300000380001003700000037000100360000D3
:100F400000360000003600010035000000350000CA
:100F500000350001003400000034000000340001BE
:100F600000330000003300000033000100320000B5
:100F700000320000003200010031000000310000AA
:100F8000003100010030000000300000003000019E
:100F9000002F0000002F0000002F0000002F000194
:100FA000002E0000002E0000002E0001002D000089
:100FB000002D0000002D0000002D0001002C00007D
:100FC000002C0000002C0000002C0001002B000071
:100FD000002B0000002B0000002B0001002A000065
:100FE000002A0000002A0000002A00010029000059
:100FF000002900000029000000290000002900014C
:101000000028000000280000002800000028000040
:101010000028000100270000002700000027000032
:101020000027000000270001002600000026000025
:101030000026000000260000002600010025000018
:10104000002500000025000000250000002500000C
:1010500000250001002400000024000000240000FE
:1010600000240000002400010023000000230000F1
:1010700000230000002300000023000000230000E4
:1010800000230001002200000022000000220000D6
:1010900000220000002200000022000100210000C8
:1010A00000210000002100000021000000210000BC
:1010B00000210000002100010020000000200000AD
:1010C00000200000002000000020000000200000A0
:1010D0000020000000200001001F0000001F000091
:1010E000001F0000001F0000001F0000001F000084
:1010F000001F0001001E0000001E0000001E000076
:10110000001E000000043700001E290000511B00D3
:10111000005810000010090000CC04000078020004
:1011200000410100002CFFFFFFFFFF000101010152
:10113000016265640A002C2073797374656D2073F5
:10114000746F7070656421204865617465725F49D1
:10115000443A2000D0A0D0B0D0B7D0BED0B3D18018
:101160002E20D181D182D0BED0BBD0B020D0BDD076
:10117000B520D183D0B42E0048656174696E6720B4
:101180006661696C656400453120D0A0D0B0D0B7ED
:10119000D0BED0B3D180D0B5D0B220D0BDD0B52094
:1011A000D183D0B4D0B0D0BBD181D18F004865619C
:1011B00074696E67206661696C65640070012C015A
:1011C00090012701B0012201C0011D01F0011801A9
:1011D0001002130130020E016002090190020401A5
:1011E000C002FF000003FA004003F5008003F00096
:1011F000D003EB002004E6007004E100E004DC0012
:101200004005D700C005D2004006CD00D006C8007A
:101210008007C3003008BE00F008B900C009B40060
:10122000B00AAF00B00BAA00D00CA500000EA000C1
:10123000500F9B00C01096005012910000148C00BB
:10124000C0158700B0178200B0197D00D01B780050
:10125000001E730040206E0090226900F02464009C
:1012600040275F0090295A00E02B5500102E5000B7
:1012700020304B0010324600E033410090353C00F6
:101280001037370070383200A0392D00B03A2800EE
:10129000A03B2300603C1E00103D1900903D14004F
:1012A000103E0F00703E0A00C03E0500003F0000E7
:1012B000403FFBFF803FF6FFC03FF1FF453120D0AC
:1012C000A3D091D095D093D090D09DD098D0952098
:1012D000D0A2D095D09FD09BD09000D0A3D091D059
:1012E00095D093D090D09DD098D09520D0A2D09575
:1012F000D09FD09BD09020D0A1D0A2D09ED09BD008
:101300009000546865726D616C2052756E617761F2
:101310007900453120D09ED188D0B8D0B1D0BAD094
:10132000B03A20D0A220D0BCD0B0D0BAD1812E000B
:10133000D09ED188D0B8D0B1D0BAD0B03A20D0A207
:1013400020D181D182D0BED0BBD0B020D0BCD0B013
:10135000D0BAD181004D415854454D502074726926
:1013600067676572656400453120D09ED188D0B82A
:10137000D0B1D0BAD0B03A20D0A220D0BCD0B8D012
:10138000BD2E00D09ED188D0B8D0B1D0BAD0B03A5E
:1013900020D0A220D181D182D0BED0BBD0B020D06D
:1013A000BCD0B8D0BD2E004D494E54454D50207490
:1013B0007269676765726564004D3834205820593A
:1013C000205A204500202F002042403A0020403A79
:1013D000002020D0A1D0BED0BFD0BBD0B03A2000DA
:1013E000D184D0B8D0BBD0B0D0BCD0B5D0BDD18224
:1013F000D0B000D18DD0BAD181D182D180D183D06B
:10140000B7D0B8D0B800D09ED0B6D0B8D0B4D0B095
:10141000D0B9D182D0B500D0BFD0B5D187D0B0D1AE
:1014200082D0B800D0B2D0BED0B7D0BED0B1D0BD7F
:10143000D0BED0B2D0BBD0B5D0BDD0B8D18F00D047
:101440009ED0B6D0B8D0B4D0B0D0B9D182D0B5008B
:10145000D09AD0B0D180D182D0B020D0B8D0B7D07F
:10146000B2D0BBD0B5D187D0B5D0BDD0B000D09A66
:10147000D0B0D180D182D0B020D0B2D181D182D0B1
:10148000B0D0B2D0BBD0B5D0BDD0B00000060900FE
:10149000FE000000000001090008FE000005080829
:1014A00006000040F0C888889878100508080600F3
:1014B00000C0F88888888888F8050505060001209E
:1014C00030F830200508080600002070F8202020A1
:1014D00020E00509090600FF2070A8A8B8888870D8
:1014E000200509090600FFE080C0B0A828302828A0
:1014F0000509090600FFF8A88888888888A8F805E3
:101500000A0A0600FE205050505088A8A888700390
:10151000030306000340A04025753A2530327500CC
:10152000253032753A253032750025756420253016
:1015300032753A2530327500202020202020005AB4
:101540000059002020202000580009200000000041
:101550000000000000000000003FFFF0000000005D
:1015600000000000000000003800700000000000D3
:101570000000000000000030FC300000000000000F
:1015800000000000000020FC10000000000000002F
:1015900000000000002078100000000000000000A3
:1015A00000000000203010000000000000000000DB
:1015B0000000002C00D03FC0000000000000002010
:1015C00082002E31D07FE0000000000000001041BA
:1015D000002F7BD07FE000000000000000104100E1
:1015E0002F7BD07FE0000000000000002082002E52
:1015F00031D03FC0000000000000004104002C007A
:10160000D03FC00000000000000082080020301021
:101610007FE0000000000000008208002078107FBA
:10162000E00000000000000041040020FC107FE00A
:101630000000000000000020820030FC301F80000D
:101640000000000000000000003800700F000000E3
:101650000000000000FFFFC03FFFF0060000000098
:1016600000000000FFFFC0000000000000000000BC
:101670000000000000003FFFF0000000000000003C
:1016800000000000003800700000000000000000B2
:101690000000000031863000000000000000000063
:1016A0000000002387100000000000000000000080
:1016B00000002787900000000000000000000000EC
:1016C000002F87D000000000000000000000000094
:1016D0002F03D03FC0000000000000002082002047
:1016E00030107FE000000000000000104100207872
:1016F000107FE00000000000000010410020781082
:101700007FE0000000000000002082002030103F39
:10171000C0000000000000004104002F03D03FC0C3
:10172000000000000000008208002F87D07FE0004A
:101730000000000000008208002787907FE0000082
:1017400000000000004104002387107FE00000003B
:10175000000000002082003186301F800000000061
:101760000000000000003800700F000000000000C2
:101770000000FFFFC03FFFF0060000000000000077
:1017800000FFFFC0000000D09FD0B0D180D0BAD100
:1017900083D0B92025732573257320D0BFD0B5D150
:1017A00080D0B2D18BD0B90020D0BFD0B5D180D0FD
:1017B000B2D18BD0B90A005A0059005800D09FD03E
:1017C000B0D180D0BAD183D0B9200020746F6F20FF
:1017D0006C6F6E6720657874727573696F6E2070B8
:1017E000726576656E7465640A0020636F6C6420B0
:1017F000657874727573696F6E2070726576656E48
:101800007465640A001FFFFFFFFFFFFF6000000018
:101810000001FF400000000000FF80000000000009
:101820007F83CF00000C303F87FF80000C301F8685
:101830007980000C000F8C30C7838C30E78C30CF60
:10184000C7CC31F38C30DCECEC33B98C30D86C6C19
:1018500033198C30D06C0C33198C30D86C0C331994
:101860008C30DC6C0E3B198C30CF7C079F198C3090
:10187000C77C038F194000000000000260000000D8
:101880000000061FFFFFFFFFFFF82020506C616E75
:101890006E657242756666657242797465733A2048
:1018A000002046726565204D656D6F72793A2000A3
:1018B000436F6D70696C65643A204D61722020360B
:1018C00020323031390A00207C20417574686F72F3
:1018D0003A2028414E59435542494320344D6178BE
:1018E0002C2064656661756C7420636F6E66696731
:1018F000290A00323031382D30382D303100204C5B
:1019000061737420557064617465643A2000312EEF
:10191000312E390A004D61726C696E0020536F667A
:1019200074776172652052657365740A002057618F
:10193000746368646F672052657365740A0020429F
:10194000726F776E206F75742052657365740A002C
:101950002045787465726E616C2052657365740AF7
:1019600000506F77657255700A0073746172740A63
:10197000006175746F25692E67006572726F722041
:1019800077726974696E6720746F2066696C650A86
:1019900000D0ADD0BDD0B4D181D182D0BED0BFD126
:1019A0008B20256320256320256320256300205A92
:1019B0003A0020593A0020583A00656E6473746FFB
:1019C0007073206869743A2000446F6E65207361FB
:1019D00076696E672066696C652E0A004D323900A3
:1019E000D0ADD0BAD181D182D180D183D0B4D0B59D
:1019F000D18000D094D0B2D0B8D0B6D0B5D0BDD0C0
:101A0000B8D0B520D0BFD0BE205A00D094D0B2D02C
:101A1000B8D0B6D0B5D0BDD0B8D0B520D0BFD0BE2C
:101A2000205900D094D0B2D0B8D0B6D0B5D0BDD067
:101A3000B8D0B520D0BFD0BE205800D092D18BD026
:101A4000BAD0BB2E00D092D0BAD0BB2E00D09FD13E
:101A500080D0BED0B3D1802E20D18DD0BDD0B4D116
:101A600081D182D0BED0BFD18B00D09FD0BED0B4A8
:101A7000D0B3D0BED182D0BED0B2D0B8D182D18CBA
:101A800000D098D0BDD0B8D186D0B8D0B0D0BBD01F
:101A9000B8D0B7D0B0D186D0B8D18F2045455052FC
:101AA0004F4D00D09DD0B0D181D182D180D0BED059
:101AB000B9D0BAD0B800D092D0BED181D181D18274
:101AC000D0B0D0BDD0BED0B2D0B8D182D18C20D0D1
:101AD000BDD0B0D181D182D1802E00D097D0B0D0EE
:101AE000B3D180D183D0B7D0B8D182D18C20D0BD32
:101AF000D0B0D181D182D180D0BED0B9D0BAD0B847
:101B000000D0A1D0BED185D180D0B0D0BDD0B8D1C9
:101B100082D18C20D0BDD0B0D181D182D180D0BE35
:101B2000D0B9D0BAD0B800D098D0BDD0B8D186D076
:101B3000B8D0B0D0BBD0B8D0B7D0B0D186D0B8D1A3
:101B40008F20454550524F4D00D0A4D0B8D0BBD0C7
:101B5000B0D0BCD0B5D0BDD18200D094D0B2D0B876
:101B6000D0B6D0B5D0BDD0B8D0B500D0A2D0B5D009
:101B7000BCD0BFD0B5D180D0B0D182D183D180D0FC
:101B8000B000D09CD0B5D0BDD18E00D09FD180D038
:101B9000B5D0B4D0BDD0B0D0B3D180D0B5D0B22004
:101BA00041425320D0BDD0B0D181D182D1802E000E
:101BB000D09FD180D0B5D0B4D0BDD0B0D0B3D1807B
:101BC000D0B5D0B220504C4120D0BDD0B0D181D1C1
:101BD00082D1802E005049442D44005049442D4468
:101BE000005049442D49005049442D490050494472
:101BF0002D50005049442D5000200820D0A4D0B0D2
:101C0000D0BAD182D0BED18000200820D0A4D0B0DC
:101C1000D0BAD182D0BED18000200820D09CD0B0D4
:101C2000D0BAD18100200820D09CD0B0D0BAD181C8
:101C300000200820D09CD0B0D0BAD181002008204C
:101C4000D09CD0B8D0BD00200820D09CD0B8D0BD4A
:101C500000200820D09CD0B8D0BD00D092D18BD02D
:101C6000BAD0BB2E00D092D0BAD0BB2E00D090D02C
:101C7000B2D182D0BED182D0B5D0BCD0BFD0B5D188
:101C800080D0B0D182D183D180D0B000D09AD1831E
:101C9000D0BBD0B5D18000D09AD183D0BBD0B5D144
:101CA0008000D09AD183D0BBD0B5D18000D0A1D153
:101CB00082D0BED0BB00D0A1D182D0BED0BB00D0DC
:101CC000A1D182D0BED0BB00D0A1D0BED0BFD0BBEE
:101CD000D0BE00D0A1D0BED0BFD0BBD0BE00D0A15E
:101CE000D0BED0BFD0BBD0BE00D09DD0B0D181D1AE
:101CF00082D180D0BED0B9D0BAD0B800D0A1D0BEE9
:101D0000D185D180D0B0D0BDD0B8D182D18C20D0F7
:101D1000BDD0B0D181D182D180D0BED0B9D0BAD01F
:101D2000B800D0A1D182D0BED0BB00D0A1D182D08A
:101D3000BED0BB00D0A1D182D0BED0BB00D0A1D03C
:101D4000BED0BFD0BBD0BE00D0A1D0BED0BFD0BB14
:101D5000D0BE00D0A1D0BED0BFD0BBD0BE00D09AE4
:101D6000D183D0BBD0B5D18000D09AD183D0BBD0A5
:101D7000B5D18000D09AD183D0BBD0B5D18000D06E
:101D8000A2D0B5D0BCD0BFD0B5D180D0B0D182D197
:101D900083D180D0B00020573A00D09ED185D0BBEF
:101DA000D0B0D0B6D0B4D0B5D0BDD0B8D0B520D199
:101DB00081D182D0BED0BBD0B02E2E2E00D09DD0EF
:101DC000B0D0B3D180D0B5D0B220D181D182D0BE35
:101DD000D0BBD0B02E2E2E00205A3A0020593A0007
:101DE00020436F756E7420583A0020453A00205AFF
:101DF0003A0020593A00583A003A004361703A00DC
:101E0000205A00205900580020204D61783A2000C7
:101E1000205A00205900580020204D696E3A2000B9
:101E2000D092D0BAD0BB2E00D092D18BD0BAD0BB3A
:101E30002E00536F667420656E6473746F70733A0E
:101E4000200023646566696E652044454641554C13
:101E5000545F4B64200023646566696E65204445C9
:101E60004641554C545F4B69200023646566696E9A
:101E7000652044454641554C545F4B702000504905
:101E800044204175746F74756E652066696E697360
:101E9000686564212050757420746865206C6173D6
:101EA00074204B702C204B6920616E64204B6420A1
:101EB000636F6E7374616E74732066726F6D2062EF
:101EC000656C6F7720696E746F20436F6E6669670B
:101ED00075726174696F6E2E680A00504944204122
:101EE00075746F74756E65206661696C6564212018
:101EF00074696D656F75740A00453120D0A3D09167
:101F0000D095D093D090D09DD098D09520D0A2D00D
:101F100095D09FD09BD09000546865726D616C2005
:101F200052756E6177617900453120D0A0D0B0D074
:101F3000B7D0BED0B3D180D0B5D0B220D0BDD0B54F
:101F400020D183D0B4D0B0D0BBD181D18F0048652F
:101F50006174696E67206661696C6564005049440C
:101F6000204175746F74756E65206661696C656477
:101F7000212054656D706572617475726520746F8F
:101F80006F20686967680A00204B643A2000204B84
:101F9000693A2000204B703A20000A20436C61739C
:101FA00073696320504944200A002054753A200088
:101FB000204B753A2000206D61783A2000206D6931
:101FC0006E3A200020643A200020626961733A2052
:101FD00000504944204175746F74756E65206661C8
:101FE000696C65642120426164206578747275644F
:101FF0006572206E756D6265720A00504944204119
:1020000075746F74756E652073746172740A00491B
:102010006E736572742066696C616D656E742061A3
:102020006E6420707265737320627574746F6E0ACB
:1020300000507265737320627574746F6E20746FD4
:102040002068656174206E6F7A7A6C650A00496E4B
:10205000736572742066696C616D656E7420616E63
:102060006420707265737320627574746F6E2028BB
:102070006F72204D313038290A0000002100240001
:1020800027002A002D003000330001010000040168
:1020900007010A0100002200250028002B002E0065
:1020A0003100340002010000050108010B010000AD
:1020B00020002300260029002C002F003200000100
:1020C00000000301060109010505050507050808CB
:1020D0000808020202020A0A0808040404040101B2
:1020E00001010101010103030303030303030407C7
:1020F00007070C0C0C0C0C0C0C0C0202020206065E
:102100000606060606060B0B0B0B0B0B0B0B010250
:1021100010202008081020401020408002010201F9
:1021200008040201010204081020408080402010B1
:10213000080402018004020180402010080402010A
:102140000804020101020408102040800102040872
:102150001020408000000A0B02090C0D0E08070336
:10216000040100000000000000000000000000006A
:10217000000000000000000000000000000000005F
:10218000121110000000000000000000000000001C
:10219000000000000000000000004D3234004D320D
:1021A0003320257300556E6B6E6F776E20636F6DF5
:1021B0006D616E643A202200496E73657274206608
:1021C000696C616D656E7420616E642070726573F8
:1021D0007320627574746F6E20286F72204D3130D9
:1021E00038290A00486F74656E6420746F6F20632D
:1021F0006F6C640A00454550524F4D206461746114
:1022000073697A65206572726F722E0A00290A005E
:102210002062797465733B20637263200053657498
:1022200074696E67732053746F7265642028002987
:102230000A002062797465733B206372632000207A
:1022400073746F7265642073657474696E6773204C
:102250007265747269657665642028002028636160
:102260006C63756C6174656429210A0020213D202E
:1022700000454550524F4D20435243206D69736DC8
:1022800061746368202D202873746F72656429203F
:10229000002053697A653A2000496E6465783A20D7
:1022A00000204D61726C696E3D563535290A002853
:1022B000454550524F4D3D00454550524F4D2076BB
:1022C000657273696F6E206D69736D6174636820E8
:1022D000007C3C3E5E2B3D3F2F5B5D3B2C2A225C0D
:1022E00000526573656E643A20006F6B006275730F
:1022F000793A2070617573656420666F7220696E2B
:102300007075740A00627573793A2070617573652F
:102310006420666F7220757365720A006275737946
:102320003A2070726F63657373696E670A00D0A399
:10233000D091D098D0A2D09E2E20004B494C4C205A
:10234000636175736564206279204B494C4C20624F
:102350007574746F6E2F70696E0A00D0A3D091D01F
:1023600098D0A2D09E2E20004B494C4C2063617522
:1023700073656420627920746F6F206D75636820C7
:10238000696E6163746976652074696D65202D20BE
:1023900063757272656E7420636F6D6D616E643A01
:1023A00020004D36303000D0A1D0B4D0B5D0BBD055
:1023B000B0D0B9D182D0B520D181D0B1D180D0BE3A
:1023C000D18100D09FD0A0D098D09DD0A2D095D060
:1023D000A020D09ED0A1D0A2D090D09DD09ED0924F
:1023E000D09BD095D09D005072696E746572206844
:1023F000616C7465642E206B696C6C2829206361A4
:102400006C6C6564210A00656E7175657565696E31
:10241000672022000000A0C00000000000000000B3
:102420000000484200004842000020410000000037
:102430005761726E696E673A20486F6D696E6720EA
:1024400042756D702044697669736F72203C20314B
:102450000A000202040000A0400000A040000000AA
:102460004000005C430000574300009643FFFFFF1D
:1024700043616E6E6F7420656E7465722073756251
:102480006469723A2000022E2E00D09CD0B5D0BDD7
:10249000D18E004D37303220542564004D36303017
:1024A00020423020542564004D373032203B2564D3
:1024B000004D3730312054256400D0A1D0BCD0B5B8
:1024C000D0BDD0B020D184D0B8D0BBD0B0D0BCD09B
:1024D000B5D0BDD182D0B000D09FD180D0B5D0B41E
:1024E000D0BDD0B0D0B3D180D0B5D0B2204142530E
:1024F00000D09FD180D0B5D0B4D0BDD0B0D0B3D1B2
:1025000080D0B5D0B220504C4100D0A1D0BCD0B5C5
:10251000D0BDD0B020D184D0B8D0BBD0B0D0BCD04A
:10252000B5D0BDD182D0B000D09FD095D0A7D090EB
:10253000D0A2D0AC20D09DD09020D09FD090D0A35E
:10254000D097D09500D092D0ABD093D0A0D0A3D0CC
:1025500097D09AD09020D0A4D098D09BD090D09CE7
:10256000D095D09DD0A2D09000D097D090D093D0CD
:10257000A0D0A3D097D09AD09020D0A4D098D09BB0
:10258000D090D09CD095D09DD0A2D09000D092D1A8
:102590008BD0B4D0B0D0B2D0B8D182D18C20D0B54D
:1025A000D189D19100D092D0BED0B7D0BED0B1D019
:1025B000BDD0BED0B2D0B8D182D18C20D0BFD0B5E2
:1025C000D187D0B0D182D18C00D09ED09FD0A6D060
:1025D00098D09820D092D09ED097D09ED091D09D68
:1025E000D09ED092D09BD095D09DD098D0AF3A00BD
:1025F0002020D0A1D0BED0BFD0BBD0B03A2000D1D7
:1026000084D0B8D0BBD0B0D0BCD0B5D0BDD182D0F2
:10261000B000D0BDD0B0D187D0B0D0BBD0B020D129
:1026200081D0BCD0B5D0BDD18B00D09ED0B6D0B8B3
:10263000D0B4D0B0D0B9D182D0B5002020D0A1D0B4
:10264000BED0BFD0BBD0B03A2000D184D0B8D0BB70
:10265000D0B0D0BCD0B5D0BDD182D0B000D0B2D136
:102660008BD0B3D180D183D0B7D0BAD0B800D09EB0
:10267000D0B6D0B8D0B4D0B0D0B9D182D0B50020C7
:1026800020D0A1D0BED0BFD0BBD0B03A2000200017
:10269000D096D0B4D0B8D182D0B52E2E2E00D09DF9
:1026A000D0B0D0B3D180D0B5D0B220D181D0BED0FF
:1026B000BFD0BBD0B0002020D0A1D0BED0BFD0BBF7
:1026C000D0B03A20002000D0BDD0B0D0B3D180D05F
:1026D000B5D0B2D0B020D181D0BED0BFD0BBD0B0A9
:1026E0002E2E2E00D09DD0B0D0B6D0BCD0B8D18286
:1026F000D0B520D0BAD0BDD0BED0BFD0BAD1832003
:10270000D0B4D0BBD18F002020D0A1D0BED0BFD0BC
:10271000BBD0B03A2000D0B4D0BBD18F20D0BFD135
:1027200080D0BED0B4D0BED0BBD0B6D0B5D0BDD096
:10273000B8D18F00D0B820D0BDD0B0D0B6D0BCD0EA
:10274000B8D182D0B520D0BAD0BDD0BED0BFD0BA1B
:10275000D18300D092D181D182D0B0D0B2D18CD1EE
:1027600082D0B520D0BFD180D183D182D0BED0BAA3
:10277000002020D0A1D0BED0BFD0BBD0B03A200026
:102780002000D0B7D0B0D0B3D180D183D0B7D0BAE9
:10279000D0B820D0BFD180D183D182D0BAD0B00000
:1027A000D09ED0B6D0B8D0B4D0B0D0B9D182D0B548
:1027B00000D09FD180D0B5D0B4D0BDD0B0D0B3D1EF
:1027C00080D0B5D0B220504C4120D181D0BED0BFF6
:1027D000D0BBD0BE00D09FD180D0B5D0B4D0BDD0BA
:1027E000B0D0B3D180D0B5D0B220504C4120D181EF
:1027F000D182D0BED0BB00D09FD180D0B5D0B4D0D4
:10280000BDD0B0D0B3D180D0B5D0B220504C4100B3
:10281000D09FD0BED0B4D0B3D0BED182D0BED0B2C3
:10282000D0B8D182D18C00D09FD180D0B5D0B4D0D7
:10283000BDD0B0D0B3D180D0B5D0B220414253206A
:10284000D181D0BED0BFD0BBD0BE00D09FD180D070
:10285000B5D0B4D0BDD0B0D0B3D180D0B5D0B22037
:1028600041425320D181D182D0BED0BB00D09FD174
:1028700080D0B5D0B4D0BDD0B0D0B3D180D0B5D099
:10288000B22041425300D09FD0BED0B4D0B3D0BE0E
:10289000D182D0BED0B2D0B8D182D18C004D3432EA
:1028A0003800D09FD180D0B5D0B4D0BDD0B0D0B397
:1028B000D180D0B5D0B220504C4100D09ED185D02F
:1028C000BBD0B0D0B6D0B4D0B5D0BDD0B8D0B500A4
:1028D000D09FD180D0B5D0B4D0BDD0B0D0B3D1804E
:1028E000D0B5D0B22041425300D0A1D0BCD0B5D099
:1028F000BDD0B020D184D0B8D0BBD0B0D0BCD0B582
:10290000D0BDD182D0B000D0A1D0BCD0B5D0BDD088
:10291000B020D184D0B8D0BBD0B0D0BCD0B5D0BD61
:10292000D182D0B0004D36303020423000D092D12C
:102930008BD0BAD0BB2E20D0B4D0B2D0B8D0B3D0C8
:10294000B0D182D0B5D0BBD0B8004D383400D097CC
:10295000D0B0D0BFD0BED0BCD0BDD0B8D182D18C89
:1029600020D0BFD0B0D180D0BAD0BED0B2D0BAD1F2
:102970008300D090D0B2D182D0BE20D0BFD0B0D111
:1029800080D0BAD0BED0B2D0BAD0B0004732380072
:10299000D094D0B2D0B8D0B6D0B5D0BDD0B8D0B524
:1029A00020D0BFD0BE20D0BED181D18FD0BC00D02E
:1029B0009CD0B5D0BDD18E00D094D0B2D0B8D0B616
:1029C000D0B5D0BDD0B8D0B520D0BFD0BE20580033
:1029D000D094D0B2D0B8D0B6D0B5D0BDD0B8D0B5E4
:1029E00020D0BFD0BE205900D094D0B2D0B8D0B63D
:1029F000D0B5D0BDD0B8D0B520D0BFD0BE205A0001
:102A0000D0ADD0BAD181D182D180D183D0B4D0B56C
:102A1000D18000D094D0B2D0B8D0B6D0B5D0BDD08F
:102A2000B8D0B520302E31D0BCD0BC00D094D0B2BC
:102A3000D0B8D0B6D0B5D0BDD0B8D0B52031D0BC8C
:102A4000D0BC00D094D0B2D0B8D0B6D0B5D0BDD024
:102A5000B8D0B5203130D0BCD0BC00D094D0B2D0EA
:102A6000B8D0B6D0B5D0BDD0B8D0B520D0BFD0BECC
:102A700020D0BED181D18FD0BC00D0ADD0BAD18111
:102A8000D182D180D183D0B4D0B5D18000D094D0C0
:102A9000B2D0B8D0B6D0B5D0BDD0B8D0B520D0BFA8
:102AA000D0BE205A00D094D0B2D0B8D0B6D0B5D0D5
:102AB000BDD0B8D0B520D0BFD0BE205900D094D062
:102AC000B2D0B8D0B6D0B5D0BDD0B8D0B520D0BF78
:102AD000D0BE20580000060900FE07019103202007
:102AE000FFFF08FF07FF00000006000001070706C0
:102AF000020080808080800080030202060105A021
:102B0000A00507070600005050F850F85050050780
:102B1000070600002078A07028F0200507070600AF
:102B200000C0C810204098180507070600006090F4
:102B3000A040A89068020303060104C04080030778
:102B4000070601002040808080402003070706011F
:102B5000008040202020408005050506000120A8B7
:102B600070A8200505050600012020F8202002039A
:102B7000030602FFC04080050101060003F80202BF
:102B800002060200C0C0050505060001081020402D
:102B900080050707060000708898A8C8887003079A
:102BA0000706010040C040404040E005070706001E
:102BB00000708808708080F8050707060000F8108C
:102BC00020100808F005070706000010305090F8A4
:102BD0001010050707060000F880F0080888700547
:102BE0000707060000304080F08888700507070658
:102BF0000000F808102020202005070706000070BC
:102C000088887088887005070706000070888878B3
:102C1000081060020505060200C0C000C0C0020620
:102C2000060602FFC0C000C040800407070600007F
:102C300010204080402010050303060002F800F831
:102C40000407070601008040201020408005070788
:102C50000600007088081020002005060606000007
:102C600070880868A870050707060000708888F853
:102C7000888888050707060000F08888F08888F0B3
:102C800005070706000070888080808870050707A8
:102C9000060000E09088888890E00507070600009D
:102CA000F88080F08080F8050707060000F8808033
:102CB000F0808080050707060000708880B888884B
:102CC00070050707060000888888F888888801074B
:102CD000070602008080808080808005070706004C
:102CE000003810101010906005070706000088904B
:102CF000A0C0A09088050707060000808080808023
:102D000080F805070706000088D8A8888888880505
:102D100007070600008888C8A8988888050707065E
:102D2000000070888888888870050707060000F012
:102D30008888F080808005070706000070888888F2
:102D4000A89068050707060000F08888F0A0908822
:102D5000050707060000788080700808F00507075F
:102D6000060000F82020202020200507070600008C
:102D70008888888888887005070706000088888802
:102D8000888850200507070600008888888888A85A
:102D900050050707060000888850205088880507DE
:102DA00007060000888888502020200507070600B5
:102DB00000F80810204080F8030707060100E080B3
:102DC00080808080E0050505060001804020100815
:102DD000030707060100E02020202020E005030370
:102DE000060004205088050101060000F8020202D6
:102DF0000602058040050505060000700878887801
:102E00000507070600008080B0C88888F005050522
:102E1000060000708080887005070706000008081B
:102E200068988888780505050600007088F8807025
:102E30000507070600003048E04040404005060610
:102E40000600FF7088887808700507070600008074
:102E500080B0C8888888010707060200800080804B
:102E60008080800308080601FF200020202020A089
:102E700040040707060000808090A0C0A0900307D0
:102E800007060100C04040404040E005050506003F
:102E900000D0A8A8A8A8050505060000B0C8888825
:102EA00088050505060000708888887005060606F6
:102EB00000FFF08888F080800506060600FF78880D
:102EC00088780808050505060000B0C880808005E0
:102ED000050506000070807008F005070706000071
:102EE0004040E040404830050505060000888888DD
:102EF00098680505050600008888885020050505A6
:102F00000600008888A8A85005050506000088501E
:102F10002050880506060600FF8888887808700516
:102F20000505060000F8102040F803070706010019
:102F3000204040804040200107070602008080803A
:102F400080808080030707060100804040204040C9
:102F500080050202060003689000000006000000E1
:102F6000000006000000000006000000000006004F
:102F70000000000006000000000006000000000045
:102F8000060000000000060000000000060000002F
:102F9000000006000000000006000000000006001F
:102FA0000000000006000000000006000000000015
:102FB00006000000000006000000000006000000FF
:102FC00000000600000000000600000000000600EF
:102FD00000000000060000000000060000000000E5
:102FE00006000000000006000000000006000000CF
:102FF00000000600000000000600000000000600BF
:1030000000000000060000000000060000000000B4
:103010000600000000000600000000000600000599
:10302000080806000040F88080F08080F805080855
:1030300006000050F88080F08080F8050707060041
:1030400000E0404070484870050808060000102065
:10305000F88880808080050707060000304880E0FF
:103060008048300507070600007088807008887067
:10307000030707060100E04040404040E003080825
:10308000060100A000E040404040E00507070600C0
:103090000038101010109060050707060000A0A06F
:1030A000A0B8A8A8B8050707060000A0A0A0F8A827
:1030B000A8B8040707060000E040705050505005C3
:1030C000080806000010208890A0E09088050808F5
:1030D00006000040208898A8C888880509090600CD
:1030E000FF5020888888502020200508080600FF0F
:1030F000888888888888F820050707060000708877
:1031000088F8888888050707060000F88080F0881E
:1031100088F0050707060000F08888F08888F00529
:103120000707060000F88880808080800508080670
:1031300000FF782828284888F88805070706000037
:10314000F88080F08080F8050707060000A8A8A88E
:1031500070A8A8A8050707060000F008087008086E
:10316000F0050707060000888898A8C88888050821
:103170000806000050208898A8A8C88805070706F8
:1031800000008890A0C0A09088050707060000787E
:1031900028282828A84805070706000088D8A888F6
:1031A000888888050707060000888888F888888846
:1031B000050707060000708888888888700507075B
:1031C000060000F8888888888888050707060000B8
:1031D000F08888F0808080050707060000708880EE
:1031E00080808870050707060000F8202020202036
:1031F00020050707060000888888502040800507C2
:10320000070600002070A8A8A87020050707060080
:1032100000888850205088880508080600FF8888A4
:1032200088888888F8080507070600008888889835
:10323000680808050707060000A8A8A8A8A8A8F815
:103240000508080600FFA8A8A8A8A8A8F808050768
:1032500007060000C0404070484870050707060098
:1032600000888888C8A8A8C80507070600008080CD
:1032700080F08888F0050707060000708808380885
:10328000887005070706000090A8A8E8A8A8900580
:10329000070706000078888878284888050505060D
:1032A000000070087888780507070600001860801D
:1032B000F0888870040505060000E090E090E005C5
:1032C0000505060000F8888080800506060600FFD8
:1032D00078284888F8880505050600007088F88079
:1032E00070050505060000A8A870A8A80505050634
:1032F0000000F0083008F00505050600008898A8D1
:10330000C88805070706000050208898A8C88804C8
:10331000050506000090A0C0A09005050506000068
:10332000F82828A84805050506000088D8A8888838
:103330000505050600008888F8888805050506004B
:10334000007088888870050505060000F888888860
:10335000880506060600FFF08888F08080050505D0
:103360000600007080808870050505060000F820C2
:103370002020200506060600FF888888780870054A
:1033800006060600002070A8A870200505050600A6
:103390000088502050880506060600FF8888888827
:1033A000F8080505050600008888F80808050505E1
:1033B000060000A8A8A8A8F80506060600FFA8A809
:1033C000A8A8F808050505060000C040704870056B
:1033D00005050600008888C8A8C803050506010081
:1033E0008080C0A0C0050505060000708838887080
:1033F00005050506000090A8E8A89005050506004B
:1034000000788878284805080806000040200070E9
:1034100088F8807005070706000050007088F88063
:10342000700509090600FF40E04040784848481010
:10343000050808060000102000F888808080050537
:10344000050600007088608870050505060000709C
:10345000807008F0010707060200800080808080ED
:1034600080030707060100A00040404040400308D9
:10347000080601FF200020202020A04005050506A9
:103480000000A0A0B8A8B8050505060000A0A0F897
:10349000A8B805060606000040E040784848040841
:1034A0000806000010200090A0C0A09005080806A3
:1034B00000004020008898A8C8880509090600FF78
:1034C0005020008888887808700506060600FF8866
:1034D000888888F82053442063617264206F6B0AE7
:1034E000006F70656E526F6F74206661696C656401
:1034F0000A00766F6C756D652E696E697420666161
:10350000696C65640A00534420696E6974206661C1
:10351000696C0A0057726974696E6720746F20665F
:10352000696C653A20006F70656E206661696C6534
:10353000642C2046696C653A20006F70656E2066C9
:1035400061696C65642C2046696C653A20004669A7
:103550006C652073656C65637465640A002053694B
:103560007A653A200046696C65206F70656E656407
:103570003A20002066696C653A2000646F696E67C6
:10358000006672657368004E6F772000454E4420D8
:10359000535542524F5554494E450A002220706FF0
:1035A00073002220706172656E743A220053554296
:1035B000524F5554494E452043414C4C2074617242
:1035C0006765743A2200D0A3D091D098D0A2D09E43
:1035D0002E2000747279696E6720746F2063616CAD
:1035E0006C207375622D67636F64652066696C6516
:1035F00073207769746820746F6F206D616E792015
:103600006C6576656C732E204D4158206C6576652F
:103610006C2069733A004572726F723A006F706580
:103620006E206661696C65642C2046696C653A2081
:103630000043616E6E6F74206F70656E20737562EB
:1036400064697220006563686F3A0056652DD18009
:10365000D18BD0B2D0BED0BA0056652DD180D18BDF
:10366000D0B2D0BED0BA0056652DD180D18BD0B2A9
:10367000D0BED0BA00567A2D6A65726B00567A2D8C
:103680006A65726B0056792D6A65726B0056792DEA
:103690006A65726B0056792D6A65726B0056782DDB
:1036A0006A65726B0056782D6A65726B0056782DCC
:1036B0006A65726B00D094D0B2D0B8D0B6D0B5D015
:1036C000BDD0B8D0B50045D188D0B0D0B32FD0BCD4
:1036D000D0BC0045D188D0B0D0B32FD0BCD0BC0076
:1036E0005AD188D0B0D0B32FD0BCD0BC005AD1882A
:1036F000D0B0D0B32FD0BCD0BC0059D188D0B0D07E
:10370000B32FD0BCD0BC0059D188D0B0D0B32FD00B
:10371000BCD0BC0058D188D0B0D0B32FD0BCD0BC66
:103720000058D188D0B0D0B32FD0BCD0BC00D0943A
:10373000D0B2D0B8D0B6D0B5D0BDD0B8D0B500D00A
:10374000A8D0B0D0B32FD0BCD0BC00D0A0D18BD0EB
:10375000B2D0BED0BA00D0A3D181D0BAD0BED18071
:10376000D0B5D0BDD0B8D0B500D091D18BD181D15A
:1037700082D180D0BED182D0B000D09DD0B0D181D6
:10378000D182D180D0BED0B9D0BAD0B800D092D139
:103790008BD0B3D180D183D0B7D0BAD0B020D0BC39
:1037A000D0BC00D092D18BD0B3D180D183D0B7D050
:1037B000BAD0B020D0BCD0BC00D092D18BD0B3D185
:1037C00080D183D0B7D0BAD0B020D0BCD0BC00D08C
:1037D00097D0B0D0B3D180D183D0B7D0BAD0B020F9
:1037E000D0BCD0BC00D097D0B0D0B3D180D183D0E2
:1037F000B7D0BAD0B020D0BCD0BC00D097D0B0D019
:10380000B3D180D183D0B7D0BAD0B020D0BCD0BC97
:1038100000D094D0B8D0B0D0BCD0B5D182D1802067
:10382000D184D0B8D0BBD0B0D0BCD0B5D0BDD182BF
:10383000D0B000D094D0B8D0B0D0BCD0B5D182D167
:103840008020D184D0B8D0BBD0B0D0BCD0B5D0BD52
:10385000D182D0B000D092D18BD0BAD0BB2E00D0C4
:1038600092D0BAD0BB2E004520D0B220D0BCD0BC64
:103870003300D09DD0B0D181D182D180D0BED0B91B
:10388000D0BAD0B80056D0BFD183D182D0B5D188BC
:103890002E20D0BCD0B8D0BD0056D0BFD183D182AD
:1038A000D0B5D1882E20D0BCD0B8D0BD0056D0BF66
:1038B000D183D182D0B5D1882E20D0BCD0B8D0BD94
:1038C0000056D0BCD0B8D0BD0056D0BCD0B8D0BD0A
:1038D0000056D0BCD0B8D0BD0056D0BCD0B0D0BA05
:1038E000D18120450056D0BCD0B0D0BAD18120457E
:1038F0000056D0BCD0B0D0BAD18120450056D0BC43
:10390000D0B0D0BAD181205A0056D0BCD0B0D0BAF5
:10391000D181205A0056D0BCD0B0D0BAD181205A23
:103920000056D0BCD0B0D0BAD18120590056D0BCFE
:10393000D0B0D0BAD18120590056D0BCD0B0D0BAC6
:10394000D18120590056D0BCD0B0D0BAD1812058F6
:103950000056D0BCD0B0D0BAD18120580056D0BCCF
:10396000D0B0D0BAD181205800D094D0B2D0B8D045
:10397000B6D0B5D0BDD0B8D0B50041D0BCD0B0D055
:10398000BAD18120450041D0BCD0B0D0BAD181207D
:10399000450041D0BCD0B0D0BAD181205A0041D02E
:1039A000BCD0B0D0BAD181205A0041D0BCD0B0D068
:1039B000BAD18120590041D0BCD0B0D0BAD1812039
:1039C000590041D0BCD0B0D0BAD18120580041D0EC
:1039D000BCD0B0D0BAD181205800412DD0BFD18306
:1039E000D182D0B5D1882E00412DD0BFD183D182D4
:1039F000D0B5D1882E00412DD0B2D182D18FD0B395
:103A0000D0B8D0B2D0B0D0BDD0B8D0B500412DD054
:103A1000B2D182D18FD0B3D0B8D0B2D0B0D0BDD0D7
:103A2000B8D0B500D0A3D181D0BAD0BED180D0B5A6
:103A3000D0BDD0B8D0B500D0A3D181D0BAD0BED13E
:103A400080D0B5D0BDD0B8D0B500D094D0B2D0B869
:103A5000D0B6D0B5D0BDD0B8D0B5004861726463DF
:103A60006F6465642044656661756C742053657489
:103A700074696E6773204C6F616465640A00DC05CD
:103A80000000DC05000064000000102700000000BA
:103A9000964300009643000020410000C84100000A
:103AA000A0420000A0420000C8433333B942545240
:103AB00049474745524544006F70656E003A200003
:103AC00066696C616D656E74007A5F6D696E007910
:103AD0005F6D696E00785F6D696E005265706F7220
:103AE00074696E6720656E6473746F70207374619F
:103AF0007475730A004572726F7220777269746907
:103B00006E6720746F20454550524F4D210A003397
:103B100044205072696E74657220D0B3D0BED182D9
:103B2000D0BED0B22E00D09FD0B5D187D0B0D18238
:103B3000D18C2E2E2E00D09FD0B5D187D0B0D1827F
:103B4000D18C20D0BDD0B020D0BFD0B0D183D0B7E1
:103B5000D0B5004D313235004D323400D09FD0B554
:103B6000D187D0B0D182D18C20D0BED182D0BCD070
:103B7000B5D0BDD0B5D0BDD0B000D09FD0B5D18725
:103B8000D0B0D182D18C20D18120534420D0BAD062
:103B9000B0D180D182D18B00D09ED181D182D0B0E2
:103BA000D0BDD0BED0B2D0B8D182D18C20D0BFD0C1
:103BB000B5D187D0B0D182D18C00D09DD0B5D18283
:103BC00020534420D0BAD0B0D180D182D18B00D044
:103BD0009FD180D0BED0B4D0BED0BBD0B6D0B8D1EB
:103BE00082D18C20D0BFD0B5D187D0B0D182D18C3A
:103BF00000D09FD0B0D183D0B7D0B020D0BFD0B547
:103C0000D187D0B0D182D0B800D09DD0B0D181D1F1
:103C100082D180D0BED0B9D0BAD0B800D09FD0BEAB
:103C2000D0B4D0B3D0BED182D0BED0B2D0B8D182C1
:103C3000D18C00D09DD0B0D181D182D180D0BED0E6
:103C4000B8D182D18C00D098D0BDD184D0BED180E3
:103C5000D0BCD0B0D186D0B8D0BED0BDD0BDD18B75
:103C6000D0B920D18DD0BAD180D0B0D0BD00D0A1F4
:103C7000D0BCD0B5D0BDD0B020D184D0B8D0BBD0CE
:103C8000B0D0BCD0B5D0BDD182D0B000D0A1D0BC16
:103C9000D0B5D0BDD0B020D184D0B8D0BBD0B0D0BA
:103CA000BCD0B5D0BDD182D0B0004D36303020422E
:103CB0003000D09FD0BED182D0BED0BA00D09FD02D
:103CC000BED182D0BED0BA00D09FD0BED182D0BEED
:103CD000D0BA00D09AD183D0BBD0B5D18000D09AD1
:103CE000D183D0BBD0B5D18000D09AD183D0BBD006
:103CF000B5D18000D0A1D182D0BED0BB00D0A1D19F
:103D000082D0BED0BB00D0A1D182D0BED0BB00D06B
:103D1000A1D0BED0BFD0BBD0BE00D0A1D0BED0BF3E
:103D2000D0BBD0BE00D0A1D0BED0BFD0BBD0BE00D3
:103D3000D0A1D0BAD0BED180D0BED181D182D18C19
:103D400000D0A1D0BAD0BED180D0BED181D182D195
:103D50008C00D0A1D0BAD0BED180D0BED181D182CA
:103D6000D18C00D09CD0B5D0BDD18E00E4ECB4ECA9
:103D700011241FBECFEFD1E2DEBFCDBF00E00CBFEC
:103D800013E0A0E0B2E0E0E5F3EF01E00BBF02C01A
:103D900007900D92AE33B107D9F723E1AEE3B3E05C
:103DA00001C01D92A83FB207E1F71EE1C7EBDEE1BB
:103DB00000E006C021970109802FFE010E94FFF854
:103DC000C63BD10780E00807A9F70E9411E60C94D2
:103DD00097F90C9400002F923F924F925F926F924E
:103DE0007F928F929F92AF92BF92CF92DF92EF928B
:103DF000FF920F931F93CF93DF93CDB7DEB7CF55CD
:103E0000D1090FB6F894DEBF0FBECDBF91E09093FD
:103E1000160C8091750D8D3409F46CC6843511F43F
:103E20000C940034873411F00C943E342090730DC0
:103E30003090740D24E02216310409F458C54CF476
:103E400037FC54C680910D0242E024163104A4F5DB
:103E50002EC05AE52516310409F4D4C55CF49BE163
:103E60002916310409F482C5ACE12A16310409F49B
:103E7000ADC53CC6BBE52B16310409F4C7C5ECE55E
:103E80002E16310409F032C6F3E52F2EF2E03F2E54
:103E9000A1E1EA2EAEE0FA2EE9E2FCE0FDA7ECA7F4
:103EA000B3E3CB2EBEE0DB2E00E010E0EEC58111C7
:103EB0000C9445340C944034882311F40C94403411
:103EC0000E94FB3A82E50E94EF3A882309F438C148
:103ED0000E94733A4B015C0120E030E0A9010E948E
:103EE000CEF1882309F458C18091290C90912A0CB5
:103EF000A0912B0CB0912C0C8CA79DA7AEA7BFA7AF
:103F000020912D0C30912E0C40912F0C5091300CA3
:103F100028AB39AB4AAB5BAB8091190C90911A0C72
:103F2000A0911B0CB0911C0C8CAF9DAFAEAFBFAF7E
:103F300020911D0C30911E0C40911F0C5091200CB3
:103F400028AF39AF4AAF5BAF9C01AD016CA57DA531
:103F50008EA59FA50E94CEF181110DC028AD39AD6F
:103F60004AAD5BAD68A979A98AA99BA90E94CEF147
:103F7000882309F411C111E032E02316310409F05D
:103F800010E020E030E0A901C501B4010E94CEF1AB
:103F9000881F8827881F181759F080E090E0A0E854
:103FA000BFEB28968CAF9DAFAEAFBFAF28970AC0CE
:103FB00020E030E040E85FE328962CAF3DAF4EAF05
:103FC0005FAF28972CA53DA54EA55FA56CAD7DAD37
:103FD0008EAD9FAD0E94F7F524966CAF7DAF8EAF8E
:103FE0009FAF249728A939A94AA95BA968AD79ADE3
:103FF0008AAD9BAD0E94F7F56B017C0124962CAD38
:104000003DAD4EAD5FAD2497CA01B9010E9433F2B8
:104010002B013C01A7019601C701B6010E9433F2B2
:104020009B01AC01C301B2010E94F8F50E9463F844
:104030006CAB7DAB8EAB9FAB20E030E040E05FE34C
:104040000E9433F22B013C01A5019401C501B4018A
:104050000E9433F24B015C01A3019201C301B20142
:104060000E9433F29B01AC01C501B4010E94F7F537
:104070000E9463F828962CAD3DAD4EAD5FAD2897FC
:104080000E9433F24B015C01C701B60190582CA984
:104090003DA94EA95FA90E94D4F6A50194010E94F2
:1040A00033F26B017C012CAD3DAD4EAD5FAD6CA527
:1040B0007DA58EA59FA50E94F8F520E030E040E0A8
:1040C0005FE30E9433F29B01AC01C701B6010E947D
:1040D000F8F52CA53DA54EA55FA50E94F7F56B014F
:1040E0007C0128AD39AD4AAD5BAD68A979A98AA933
:1040F0009BA90E94F8F520E030E040E05FE30E94D9
:1041000033F22B013C012CA93DA94EA95FA92496AD
:104110006CAD7DAD8EAD9FAD24970E94D4F6A50108
:1041200094010E9433F29B01AC01C301B2010E94D1
:10413000F8F528A939A94AA95BA90E94F7F514C086
:1041400089E40E94EF3A882329F00E94733A6B01B8
:104150007C0103C0C12CD12C76018AE40E94EF3A85
:104160008823E9F00E94733A6CAF7DAF8EAF9FAFAA
:1041700020E030E0A901C701B6010E94CEF1811113
:104180001BC020E030E0A9016CAD7DAD8EAD9FADD0
:104190000E94CEF1811110C0E6E1F6E394C320E065
:1041A00030E0A901C701B6010E94CEF18823A1F336
:1041B0001CAE1DAE1EAE1FAED701C601B0588CA7F7
:1041C0009DA7AEA7BFA72CAD3DAD4EAD5FAD50587E
:1041D00028AB39AB4AAB5BAB9C01AD01BC01CD0157
:1041E0000E9433F24B015C0128A939A94AA95BA9B5
:1041F000CA01B9010E9433F29B01AC01C501B401AF
:104200000E94F8F50E9463F864966CAF7DAF8EAFA4
:104210009FAF64978091290C90912A0CA0912B0C50
:10422000B0912C0C88AF99AFAAAFBBAFA701960194
:10423000BC01CD010E94F8F528966CAF7DAF8EAF22
:104240009FAF289720912D0C30912E0C40912F0C70
:104250005091300C24962CAF3DAF4EAF5FAF2497FA
:104260002CAD3DAD4EAD5FAD24966CAD7DAD8EAD4C
:104270009FAD24970E94F8F568966CAF7DAF8EAF26
:104280009FAF68978091190C90911A0CA0911B0C0C
:10429000B0911C0C2C968CAF9DAFAEAFBFAF2C97DE
:1042A00028962CAD3DAD4EAD5FAD2897BC01CD013C
:1042B0000E94F7F56B017C0120911D0C30911E0CC2
:1042C00040911F0C5091200C60962CAF3DAF4EAF2B
:1042D0005FAF609768962CAD3DAD4EAD5FAD689712
:1042E00060966CAD7DAD8EAD9FAD60970E94F7F589
:1042F0004B015C018091310C9091320CA091330CF8
:10430000B091340C6C968CAF9DAFAEAFBFAF6C97D5
:104310009C01AD016091210C7091220C8091230CC5
:104320009091240C0E94F7F56CAB7DAB8EAB9FABEC
:10433000A70196016CA57DA58EA59FA50E9433F2CD
:104340002B013C01A501940168A979A98AA99BA91F
:104350000E9433F29B01AC01C301B2010E94F8F547
:104360002B013C01A50194016CA57DA58EA59FA5FF
:104370000E9433F24B015C01A701960168A979A95B
:104380008AA99BA90E9433F29B01AC01C501B4012B
:104390000E94F7F5A30192010E946BF66B017C016C
:1043A00020E030E0A9010E94CEF187FF0AC02BED8A
:1043B0003FE049EC50E4C701B6010E94F8F56B01FB
:1043C0007C0192E02916310451F42BED3FE049ECD9
:1043D00050E4C701B6010E94F7F56B017C0120E0B3
:1043E00030E0A901C701B6010E94CEF1811126C0BB
:1043F0002C962CAD3DAD4EAD5FAD2C9768AD79AD33
:104400008AAD9BAD0E94CEF1811118C060962CAD93
:104410003DAD4EAD5FAD609724966CAD7DAD8EAD7C
:104420009FAD24970E94CEF1811108C00BEDC02EE4
:104430000FE0D02E09ECE02E00E4F02EA70196014B
:1044400064966CAD7DAD8EAD9FAD64970E9433F2E6
:104450004B015C0120E030E0A9016CA97DA98EA987
:104460009FA90E94CEF18823D9F0A5019401C5012E
:10447000B4010E9433F24B015C012CA93DA94EA965
:104480005FA9CA01B9010E9433F29B01AC01C501C9
:10449000B4010E94F8F50E9463F84B015C010DC065
:1044A00020E030E0A901C501B4010E941EF887FF99
:1044B00004C0B7FAB094B7F8B0942FE632E143E8FD
:1044C0005AE3C501B4010E94CEF187FF02C00C94EB
:1044D0004034C501B4010E946DF70E9441F7229655
:1044E0007FAF6EAF2297DB01AB2B31F4E1E0F0E060
:1044F0002296FFAFEEAF22974090350C5090360CCD
:104500006090370C7090380C22962EAD3FAD2297FC
:10451000B90180E090E00E94D2F14B015C019B0167
:10452000AC01C701B6010E94D4F668AF79AF8AAF7B
:104530009BAFA50194016CA97DA98EA99FA90E949A
:10454000D4F664966CAF7DAF8EAF9FAF6497A30136
:1045500092016091250C7091260C8091270C90910E
:10456000280C0E94F7F5A50194010E94D4F6A096AC
:104570006CAF7DAF8EAF9FAFA09728AD39AD4AAD80
:104580005BADCA01B9010E9433F220E030E040E0A7
:104590005FE30E9433F29B01AC0160E070E080E8D1
:1045A0009FE30E94F7F52C966CAF7DAF8EAF9FAF67
:1045B0002C976C968CAD9DADAEADBFAD6C978987D9
:1045C0009A87AB87BC874D865E866F86788A6091B6
:1045D000510270915202072E000C880B990B0E9419
:1045E000D4F12091000230910102409102025091D9
:1045F00003020E9433F22AE037ED43E25CE30E94BB
:1046000033F268A779A78AA79BA70E948C789B01A1
:10461000AC0128533F4F4F4F5F4F60962CAF3DAFDB
:104620004EAF5FAF60974CA45DA46EA47FA422241C
:104630002394312C39E13CAB22964EAD5FAD2297ED
:104640004215530509F41BC10E94FD530E948C784A
:10465000DC01CB0160962CAD3DAD4EAD5FAD6097FA
:10466000821B930BA40BB50BB7FD11C00E948C7875
:104670009B01AC0128533F4F4F4F5F4F60962CAFCB
:104680003DAF4EAF5FAF609780E00E94C1A53CA9EF
:1046900031503CAB332309F441C028A939A94AA9B8
:1046A0005BA92C966CAD7DAD8EAD9FAD2C970E9415
:1046B00033F26B017C019201A30168AD79AD8AAD43
:1046C0009BAD0E9433F2A70196010E94F8F57B0191
:1046D0008C019201A3012C966CAD7DAD8EAD9FAD8A
:1046E0002C970E9433F24B015C0128A939A94AA9F1
:1046F0005BA968AD79AD8AAD9BAD0E9433F29B0199
:10470000AC01C501B4010E94F7F52B013C01C701C2
:10471000D80188AB99ABAAABBBAB4DC0B10180E06F
:1047200090E00E94D2F128AD39AD4AAD5BAD0E9458
:1047300033F24B015C010E94D1F66B017C01C50193
:10474000B4010E9459F84B015C01A70196016CA5C8
:104750007DA58EA59FA50E9433F22B013C012CADB7
:104760003DAD4EAD5FADC501B4010E9433F2A30172
:1047700092010E94F8F52B013C01A50194016CA562
:104780007DA58EA59FA50E9433F24B015C012CAD47
:104790003DAD4EAD5FADC701B6010E9433F29B0146
:1047A000AC01C501B4010E94F7F568AB79AB8AABE7
:1047B0009BAB49E14CAB9201A30128966CAD7DAD5A
:1047C0008EAD9FAD28970E94F8F569837A838B831D
:1047D0009C8328A939A94AA95BA968966CAD7DADCF
:1047E0008EAD9FAD68970E94F8F56D837E838F83B1
:1047F000988764962CAD3DAD4EAD5FAD64976985ED
:104800007A858B859C850E94F8F569877A878B87E6
:104810009C87A0962CAD3DAD4EAD5FADA0976D854C
:104820007E858F8598890E94F8F56D877E878F87B2
:10483000988B80911F02882321F0CE0101960E945F
:10484000ACA3E0904A0C18A219A21AA21BA2CE0196
:1048500080966C018E01085D1F4F9E01235F3F4FC4
:10486000AE01475F5F4FBE016B5F7F4F4F970E9466
:10487000BD68882321F09FEF291A390ADDCEE09028
:104880004A0C1CA21DA21EA21FA2DE0194966D015D
:104890008E01085D1F4F25E23CE041E25CE06DE1E6
:1048A0007CE089E19CE00E94BD6880E1E9E1FCE0F8
:1048B000A9E2BCE001900D928A95E1F70C94403496
:1048C0000E94E83BF80184918F010F5F1F4F811117
:1048D000F7CFEFE8F2E084918F010F5F1F4F88233D
:1048E00011F40C9440340E94E83BF801F4CF80E5C9
:1048F0000E94EF3A882329F00E94333A6B017C0131
:1049000003C0C12CD12C760183E50E94EF3A8823A5
:1049100061F00E94733A20E030E04AE754E40E94DC
:1049200033F20E9441F76B017C010E9461D68091B5
:104930006D10811105C060E085EA92E00E94ADBD76
:104940000E948C78C60ED71EE81EF91E0E948C7835
:10495000DC01CB018C199D09AE09BF09B7FD02C06E
:104960000C94403480E00E94C1A5F0CF0E94907664
:1049700081110C94403480E090E0A0EAB0E4898397
:104980009A83AB83BC8380E090E0ADE4B3E48D8395
:104990009E83AF83B88780E090E0A0EAB1E4898786
:1049A0009A87AB87BC8780E50E94EF3A882319F08D
:1049B0000E94433A01C060E068A3BE016F5F7F4F71
:1049C000CE0180960E94CED80C94403480912A0A61
:1049D0008770873011F00C942C358FE40E94EF3AE9
:1049E000882341F00E94643A882311F40C942C35FA
:1049F0000C9440348FE40E94A63A81110C94403408
:104A00000C942C35109242030C9440349093420342
:104A10000C9440340E94733A2B013C01133049F04E
:104A2000F60120813181428153810E94F7F52B01EB
:104A30003C01ACA5BDA52D913D914D915C91C3016B
:104A4000B2010E94F7F54B015C012DEB37E346E81C
:104A500055EB0E941EF887FD20C02DEB37E346E89A
:104A600055E3C501B4010E94CEF11816B4F01F5FE2
:104A7000B4E0EB0EF11CECA5FDA53496FDA7ECA768
:104A8000F4E0CF0ED11C143039F1D1018D911D010C
:104A90000E94EF3A882359F3BDCF133051F440926E
:104AA000350C5092360C6092370C7092380C01E045
:104AB000DECFA5019401F70160817181828193812C
:104AC0000E94F8F5D7016D937D938D939C93139776
:104AD000812F0E94D738CBCF002321F085E39CE0C3
:104AE0000E942D760E94A9880C9440340E941D8F4C
:104AF0000C9440348091730D9091740D8237910520
:104B000011F40C948E2D0CF0DCC08B34910509F45B
:104B100047C50CF06BC08831910509F49BC2CCF5F8
:104B20008231910509F42FC7DCF497FF02C00C9481
:104B3000FD33823091050CF4BCC1419711F00C9407
:104B4000FD3360E087EC92E00E94ADBD5F988A98EB
:104B50008091080181708093060112980C94403472
:104B60008531910509F45BC23CF4449711F00C9433
:104B7000FD33EFEEF2E015C28631910509F453C220
:104B8000479711F00C94FD33E091710DF091720D87
:104B900054C28D31910511F40C944034C4F48A311F
:104BA000910509F48FC20CF47FC28B31910509F491
:104BB00097C24C9711F00C94FD3340E060E0809177
:104BC000710D9091720D0E941AC20C9440348F3175
:104BD000910509F4FBC30CF41BC38032910509F461
:104BE000A9C38A9709F4A8C40C94FD3388369105AB
:104BF00009F4E2C4F4F58235910509F4BDC604F563
:104C00008D34910509F4D4C40CF4CEC481359105DA
:104C100011F00C94FD330E94AC4F0E949FD610926D
:104C200033051092320568EE73E080E090E00E9458
:104C3000BDBC60E08CED93E00E94ADBD0C944034AF
:104C40008435910509F49FC60CF499C68535910504
:104C500009F4CCC68C35910511F00C94FD3343E575
:104C6000C42E42E0D42E5AE0E52E5AE0F52E10E094
:104C7000D6C68D36910509F4A3C59CF48A369105F4
:104C800009F4C4C50CF45AC58B36910509F4DCC58A
:104C90008C36910511F00C94FD3310923D020C946A
:104CA00040348F36910509F4C5C40CF4B0C4803784
:104CB000910509F412C58137910509F412C50C94C8
:104CC000FD338C3D910511F40C9461310CF068C0FA
:104CD0008139910511F40C94912E2CF587379105AB
:104CE00011F40C94832E74F48537910509F4B0C740
:104CF0000CF0BDC78337910511F00C94FD33E7ED3F
:104D0000F4E04BC78937910511F40C948C2E0CF408
:104D1000FDC78D37910509F4A9C58C38910509F4B3
:104D200053C50C94FD338B3C910511F40C94712FF9
:104D30000CF58E3B910509F465C534F48B3991056A
:104D400009F417C50C94FD33883C910511F40C94BB
:104D5000092F893C910511F00C94FD3313E5E12EE8
:104D600012E0F12E09ED13E189EEC82E83E1D82E71
:104D70000C94592F8D3C910511F40C94043014F4CB
:104D80000C948F2F8E3C910511F40C946F30833D61
:104D9000910511F00C94FD330E9494870C944034DB
:104DA0008C3A21E0920711F40C9491300CF03FC042
:104DB0008E3241E0940711F40C94D032D4F4823E48
:104DC000910511F40C94DD313CF48D3D910511F405
:104DD0000C946E310C94FD338C32A1E09A0711F4DF
:104DE0000C9407328D32914011F40C9430320C94B3
:104DF000FD338336E1E09E0709F457C04CF48F324F
:104E0000914011F00C94FD330E9436830C94403491
:104E1000803931E0930711F40C9436338A3991408C
:104E200011F00C94FD330E94FD820C9440348835BF
:104E300052E0950711F40C946333ECF4853FB1E034
:104E40009B0711F40C9439334CF4843F914011F0DA
:104E50000C94FD330E9480970C944034863F21E0EF
:104E6000920711F40C943C33883F914011F40C9458
:104E70003F330C94FD338B3843E0940711F40C94CA
:104E800040343CF48B35924011F40C9466330C940E
:104E9000FD33803AB3E09B0709F48BC2873E934011
:104EA00011F40C94EB330C94FD33E6E1F6E30C942F
:104EB0002333A090710DB090720D80E50E94EF3AFF
:104EC000882359F00E94333A6B017C0111E0672B73
:104ED000682B692B31F410E004C010E0C12CD12CF8
:104EE000760183E50E94EF3A882311F40C94D135C2
:104EF0000E94733A20E030E04AE754E40E9433F223
:104F00000E9441F76B017C0111110BC0672B682BCC
:104F1000692B39F4A114B10421F0D5018C918111D0
:104F200002C010E001C011E00E9461D6112329F0F7
:104F300061E0C5010E94E7BD05C060E08FEA92E034
:104F40000E94ADBD83E08093160C81E08093150C28
:104F5000C114D104E104F104B1F00E948C78C60EB2
:104F6000D71EE81EF91E0E948C78DC01CB018C193B
:104F70009D09AE09BF09B7FF0EC08091150C8111C4
:104F80000C94D63508C08091150C882321F080E060
:104F90000E94C1A5F8CF0E94F5E01092150C0C9468
:104FA000403484918F010F5F1F4F882321F00E94AE
:104FB000E83BF801F6CF1092C7138AE791E10E940F
:104FC000899E8BE1EAE7F1E1DE01159601900D92F1
:104FD0008A95E1F780917811909179119C838B8368
:104FE0008DEF92E09A83898340E050E0BE016F5FCD
:104FF0007F4F80E090E00E94A6C5CE0101960E94FE
:1050000040A5E0EEF2E084918F010F5F1F4F8823EF
:1050100011F40C9440340E94E83BF801F4CF0E9454
:10502000A7BF0C94403410922311109224110C94B9
:105030004034803209F41082319680818111F9CF99
:1050400040E061E08091710D9091720D0E941AC252
:105050000C94403480E090E0A8E4B2E489839A8321
:10506000AB83BC8318A219A21AA21BA21CA21DA268
:105070001EA21FA280916A10882359F020E0AE0181
:105080004F5F5F4FBE01605E7F4FCE0184960E94EE
:105090007F8D80912411882319F081E08093231162
:1050A0000E9488430C944034109223110E94AB4319
:1050B00080E093E090930D0C80930C0C0E942B39B0
:1050C0000C94403480912411882311F40C944034C2
:1050D00083E50E94EF3A81110C94DB350C94403447
:1050E00083E40E94A63A882309F450C0E2E3F3E087
:1050F00084918F010F5F1F4F882321F00E94E83BAE
:10510000F801F6CF80911513811103C0E5E0F3E0BB
:1051100012C0BE016F5F7F4F82E193E10E94519DFB
:105120008E010F5F1F4FF80181918F01882349F194
:105130000E94E83BF8CF84918F010F5F1F4F8823B7
:1051400001F10E94E83BF801F6CF70EBC72E73E047
:10515000D72EE12CF12C20E08091090A90E00E2C52
:1051600002C0959587950A94E2F780FD93C2BFEF40
:10517000EB1AFB0AE2E0CE0ED11CF5E0EF16F104CB
:1051800059F78AE00E94E83B0C9440348091241146
:10519000882339F080912311882319F0EFE0F3E0A0
:1051A00003C0E1E2F3E028C084918F010F5F1F4F3D
:1051B000882321F00E94E83BF801F6CF6091C313E9
:1051C0007091C4138091C5139091C6134AE00E9458
:1051D000D43F8FE20E94E83B6091BF137091C013EF
:1051E0008091C1139091C2134AE00E94D43F8AE09B
:1051F0000E94E83B0C94403484918F010F5F1F4F55
:10520000882311F40C9440340E94E83BF801F4CF59
:1052100080912411882311F40C94403482E193E1AD
:105220000E94EBDE82E193E10E942C9D10922211FC
:105230001092211180912411882311F40C94403490
:105240000091710D1091720D0E9468BFB801CE01DE
:1052500080960E945EC18C01892B11F40C9440341D
:1052600068A179A16115710511F06C5F7F4F1982FA
:105270001C8222E0A801CE0101960E94B8A28111F1
:1052800002C0F12C14C0CE0101960E9414C58823DF
:10529000C1F361E0CE0101960E94359D009789F32C
:1052A00025EEDC012C931C820E9494DCF82ECE01AA
:1052B00001960E947A3BF11003C0EFE4F3E022C0B4
:1052C000E1E4F3E084917F01BFEFEB1AFB0A88234E
:1052D00021F00E94E83BF701F5CFF80181918F01A1
:1052E000882319F00E94E83BF8CF8AE00E94E83B4F
:1052F0001092C3131092C4131092C5131092C613C8
:105300000C94403484917F012FEFE21AF20A882333
:1053100021F00E94E83BF701F5CFD8018D918D0176
:10532000882319F00E94E83BF8CF8EE20E94E83B08
:105330000C9440348091231181110E9461D6809198
:105340002411882311F40C94403480E50E94EF3A34
:10535000882319F00E94643A03C080E50E94A63AAF
:10536000182F482F61E08091710D9091720D0E946D
:105370001AC283E50E94EF3A882381F00E94433AE3
:10538000AB01BC014093C3135093C4136093C51386
:105390007093C61382E193E10E94429C8091241194
:1053A000882319F081E08093231111110C9440346B
:1053B00077CE8091710D9091720D21E02093221192
:1053C00040E060E00E941AC20C9440340E94B9563A
:1053D0007B018C0120E831E541E050E00E94BCF502
:1053E000C9016DE671E00E94BCF84B015C01C80187
:1053F000B70120E13EE040E050E00E94BCF5CA0168
:10540000B90128E130E040E050E00E94BCF5762E82
:10541000672EC62ED72EECE32E2E312C412C512C8C
:10542000C801B701A20191010E94BCF5F62EE72E3A
:10543000CA01B901A20191010E94BCF5CB018E0104
:105440000F5F1F4F8114910499F0EF92FF927F93A9
:105450006F936F927F92BF92AF929F928F928FE8DD
:1054600093E09F938F931F930F930E9468F113C053
:10547000A114B104B1F0EF92FF927F936F936F92FA
:105480007F92BF92AF928FE793E09F938F931F938A
:105490000F930E9468F10FB6F894DEBF0FBECDBF28
:1054A00030C0CD2879F0EF92FF927F936F936F9287
:1054B0007F9283E793E09F938F931F930F930E94B4
:1054C00068F1E9CF892B69F0EF92FF927F936F9398
:1054D0008BE693E09F938F931F930F930E9468F145
:1054E000DACFEF92FF9287E693E09F938F931F931B
:1054F0000F930E9468F10F900F900F900F900F90F4
:105500000F9060E0C8010E94E7BDE5E4F6E38491F6
:105510007F019FEFE91AF90A882321F00E94E83BF6
:10552000F701F5CFB80183EA93E00E94A64B8AE029
:105530000E94E83B0C94403483E50E94EF3A8823B4
:1055400011F40C9440340E94533AE82E80E50E94F6
:10555000EF3A882339F00E94533A182F87FF03C08F
:105560000C9440341DE089E40E94EF3A882341F016
:105570000E94643A81110C944E36E3E3F6E00BC0CE
:1055800089E40E94A63AF6CF3196A6E0E036FA0703
:1055900011F40C944E3684911813F6CF0C942236E5
:1055A0000E9488430C9440340E94AB430C944034D6
:1055B0000E94C0430C94403488E690E00E943F4033
:1055C00081110C9440348091090A83FF02C00C942D
:1055D000403483E50E94EF3A8823A9F00E94733A91
:1055E0000E943CF7CB010E9452BD0E94733A20E01A
:1055F00030E04AEA52E40E94CEF1181624F00E94EC
:10560000C0430E94F5E00E94C14B0C9440348EE4EC
:105610000E94EF3A882311F40C9440340E94433ADC
:105620006093661070936710809368109093691070
:105630000C94403483E50E94A63A882359F083E510
:105640000E94EF3A882319F00E94533A01C080E08B
:105650008093090AE5E4F6E384918F010F5F1F4F01
:10566000811103C0EEEBF3E004C00E94E83BF801B7
:10567000F3CF84918F010F5F1F4F882321F00E9489
:10568000E83BF801F6CF8091090A81115ECDEAEB83
:10569000F3E018C0BB24B394B20E222319F08CE2BD
:1056A0000E94E83BF60185919491FC0184918F0161
:1056B0000F5F1F4F882321F00E94E83BF801F6CFCF
:1056C0002B2D55CD84918F010F5F1F4F882309F437
:1056D00058CD0E94E83BF801F5CF85EC93E00E949D
:1056E00061A583E50E94EF3A811103C0E5E4F6E38A
:1056F0000DC00E94533A8D3320F480933E020C94E7
:1057000040348CE380933E020C94403484918F01AA
:105710000F5F1F4F882321F00E94E83BF801F6CF6E
:1057200040913E0250E060E070E082ED93E00E9424
:10573000534B8AE00E94E83B0C94403489E690E0A9
:105740000E943F40811111C0E9EDF3E084918F0187
:105750000F5F1F4F882321F00E94E83BF801F6CF2E
:105760000E94A64E8AE00E94E83B1092160C0C9410
:10577000633683E50E94EF3A882311F40C94403499
:105780000E94533A182F8D3308F01CE31093100E2B
:105790000E948C786B017C01212F30E0A8EEB3E0F1
:1057A0000E94E8F5C60ED71EE81EF91EC0920C0E28
:1057B000D0920D0EE0920E0EF0920F0E0C9440342B
:1057C0000E9495400C9440348091090A83FF02C0E6
:1057D0000C94403483E50E94EF3A882311F40C9432
:1057E00040340E94733A0E943CF76639710514F008
:1057F00066E970E070930B0C60930A0C0E94604F96
:105800000C9440340E9473890C94403480E50E94CB
:10581000EF3A811106C083E50E94EF3A882361F0D8
:1058200006C00E94533A81110C944034F4CF0E9478
:10583000433A6F3F710510F06FEF70E070933305DE
:10584000609332050C94403480E50E94EF3A811158
:1058500006C010923305109232050C9440340E9419
:10586000433A672B11F00C944034F3CF8CE40E9440
:10587000A63A882381F00E94733A6B017C0120E0F4
:1058800030E0A9010E941EF887FF0AC0F7FAF094E1
:10589000F7F8F09405C0C12CD12CE12C60E4F62E71
:1058A000F7FAF094F7F8F094CCA2DDA2EEA2FFA2F2
:1058B00080E090E0A0EAB0E489839A83AB83BC8364
:1058C00080E090E0ADE4B3E48D839E83AF83B8873E
:1058D00080E090E0A0EAB1E489879A87AB87BC8733
:1058E00088E50E94EF3A882379F088E50E94EF3A34
:1058F000882319F00E94733A03C060E070E0CB0186
:1059000069837A838B839C8389E50E94EF3A88239D
:1059100079F089E50E94EF3A882319F00E94733AE2
:1059200003C060E070E0CB016D837E838F83988736
:105930008AE50E94EF3A882379F08AE50E94EF3ADF
:10594000882319F00E94733A03C060E070E0CB0135
:1059500069877A878B879C8718A219A21AA21BA233
:1059600020E0AE01405E5F4FBE016F5F7F4FCE0112
:1059700084960E94EF3B84C71092410381C781E067
:10598000809341037DC783E50E94EF3A882399F015
:105990000E94733A20E030E04AE754E40E9433F278
:1059A0000E9441F760933F0270934002809341024E
:1059B0009093420265C788E50E94A63A81110C9433
:1059C000EB3589E50E94A63A81110C94EB358AE506
:1059D0000E94A63A81110C94EB3585E40E94A63A08
:1059E00081110C94EB350E949FD64AC783E50E9433
:1059F000A63A882309F444C70E94733A20E030E0B5
:105A00004AE754E40E9433F20E9441F76093080E83
:105A10007093090E80930A0E90930B0E31C7D60136
:105A20008D916D010E94A63A882309F46DC0133050
:105A300009F063C00E94733A4B015C0120E030E042
:105A400040EA51E40E94CEF187FF4EC0A5019401C7
:105A50006091160A7091170A8091180A9091190A9C
:105A60000E94D4F62B013C019B01AC016091DE0445
:105A70007091DF048091E0049091E1040E9433F280
:105A80006093DE047093DF048093E0049093E1045C
:105A9000A301920160910E0570910F058091100590
:105AA000909111050E9433F260930E0570930F05DB
:105AB00080931005909311056091EE047091EF04AE
:105AC0008091F0049091F1040E94D2F1A30192011F
:105AD0000E9433F20E9441F76093EE047093EF044A
